{
  "contractName": "Sellable",
  "abi": [
    {
      "constant": true,
      "inputs": [],
      "name": "askingPrice",
      "outputs": [
        {
          "name": "",
          "type": "uint256"
        }
      ],
      "payable": false,
      "stateMutability": "view",
      "type": "function"
    },
    {
      "constant": true,
      "inputs": [],
      "name": "selling",
      "outputs": [
        {
          "name": "",
          "type": "bool"
        }
      ],
      "payable": false,
      "stateMutability": "view",
      "type": "function"
    },
    {
      "constant": true,
      "inputs": [],
      "name": "sellingTo",
      "outputs": [
        {
          "name": "",
          "type": "address"
        }
      ],
      "payable": false,
      "stateMutability": "view",
      "type": "function"
    },
    {
      "constant": true,
      "inputs": [],
      "name": "owner",
      "outputs": [
        {
          "name": "",
          "type": "address"
        }
      ],
      "payable": false,
      "stateMutability": "view",
      "type": "function"
    },
    {
      "inputs": [],
      "payable": false,
      "stateMutability": "nonpayable",
      "type": "constructor"
    },
    {
      "anonymous": false,
      "inputs": [
        {
          "indexed": false,
          "name": "_saleDate",
          "type": "uint256"
        },
        {
          "indexed": false,
          "name": "_from",
          "type": "address"
        },
        {
          "indexed": false,
          "name": "_to",
          "type": "address"
        },
        {
          "indexed": false,
          "name": "_salePrice",
          "type": "uint256"
        }
      ],
      "name": "Transfer",
      "type": "event"
    },
    {
      "constant": false,
      "inputs": [
        {
          "name": "_price",
          "type": "uint256"
        },
        {
          "name": "_to",
          "type": "address"
        }
      ],
      "name": "initiateSale",
      "outputs": [],
      "payable": false,
      "stateMutability": "nonpayable",
      "type": "function"
    },
    {
      "constant": false,
      "inputs": [],
      "name": "cancelSale",
      "outputs": [],
      "payable": false,
      "stateMutability": "nonpayable",
      "type": "function"
    },
    {
      "constant": false,
      "inputs": [
        {
          "name": "valued",
          "type": "uint256"
        }
      ],
      "name": "completeSale",
      "outputs": [],
      "payable": true,
      "stateMutability": "payable",
      "type": "function"
    }
  ],
  "bytecode": "0x608060405260008060146101000a81548160ff02191690831515021790555034801561002a57600080fd5b50336000806101000a81548173ffffffffffffffffffffffffffffffffffffffff021916908373ffffffffffffffffffffffffffffffffffffffff1602179055507ff2dbd98d79f00f7aff338b824931d607bfcc63d47307162470f25a055102d3b0600f430260008060009054906101000a900473ffffffffffffffffffffffffffffffffffffffff166000604051808581526020018473ffffffffffffffffffffffffffffffffffffffff1673ffffffffffffffffffffffffffffffffffffffff1681526020018373ffffffffffffffffffffffffffffffffffffffff1673ffffffffffffffffffffffffffffffffffffffff16815260200182815260200194505050505060405180910390a1610c41806101476000396000f300608060405260043610610083576000357c0100000000000000000000000000000000000000000000000000000000900463ffffffff16806309e949e8146100885780631a7ac726146100d557806323aed228146101005780634d8a96101461012f578063750225d0146101865780638da5cb5b146101a6578063e7e10490146101fd575b600080fd5b34801561009457600080fd5b506100d360048036038101908080359060200190929190803573ffffffffffffffffffffffffffffffffffffffff169060200190929190505050610214565b005b3480156100e157600080fd5b506100ea610533565b6040518082815260200191505060405180910390f35b34801561010c57600080fd5b50610115610539565b604051808215151515815260200191505060405180910390f35b34801561013b57600080fd5b5061014461054c565b604051808273ffffffffffffffffffffffffffffffffffffffff1673ffffffffffffffffffffffffffffffffffffffff16815260200191505060405180910390f35b6101a460048036038101908080359060200190929190505050610572565b005b3480156101b257600080fd5b506101bb6109ec565b604051808273ffffffffffffffffffffffffffffffffffffffff1673ffffffffffffffffffffffffffffffffffffffff16815260200191505060405180910390f35b34801561020957600080fd5b50610212610a11565b005b6000809054906101000a900473ffffffffffffffffffffffffffffffffffffffff1673ffffffffffffffffffffffffffffffffffffffff163373ffffffffffffffffffffffffffffffffffffffff161415156102fe576040517f08c379a00000000000000000000000000000000000000000000000000000000081526004018080602001828103825260258152602001807f596f7520617265206e6f7420616e206f776e6572206f66207468697320636f6e81526020017f747261637400000000000000000000000000000000000000000000000000000081525060400191505060405180910390fd5b3073ffffffffffffffffffffffffffffffffffffffff168173ffffffffffffffffffffffffffffffffffffffff161415801561038757506000809054906101000a900473ffffffffffffffffffffffffffffffffffffffff1673ffffffffffffffffffffffffffffffffffffffff168173ffffffffffffffffffffffffffffffffffffffff1614155b1515610421576040517f08c379a00000000000000000000000000000000000000000000000000000000081526004018080602001828103825260288152602001807f596f752063616e6e6f742073656c6c2074686520636f6e747261637420746f2081526020017f796f757273656c6600000000000000000000000000000000000000000000000081525060400191505060405180910390fd5b600060149054906101000a900460ff161515156104cc576040517f08c379a00000000000000000000000000000000000000000000000000000000081526004018080602001828103825260288152602001807f5468697320636f6e747261637420697320616c7265616479206c6f636b65642081526020017f666f722073616c6500000000000000000000000000000000000000000000000081525060400191505060405180910390fd5b6001600060146101000a81548160ff02191690831515021790555080600160006101000a81548173ffffffffffffffffffffffffffffffffffffffff021916908373ffffffffffffffffffffffffffffffffffffffff160217905550816002819055505050565b60025481565b600060149054906101000a900460ff1681565b600160009054906101000a900473ffffffffffffffffffffffffffffffffffffffff1681565b60008060008060149054906101000a900460ff1615156105fa576040517f08c379a00000000000000000000000000000000000000000000000000000000081526004018080602001828103825260188152602001807f436f6e7472616374206973206e6f7420666f722073616c65000000000000000081525060200191505060405180910390fd5b6000809054906101000a900473ffffffffffffffffffffffffffffffffffffffff1673ffffffffffffffffffffffffffffffffffffffff163373ffffffffffffffffffffffffffffffffffffffff16141515156106e5576040517f08c379a00000000000000000000000000000000000000000000000000000000081526004018080602001828103825260238152602001807f4f776e65722063616e6e6f74206265206120627579206f66206120636f6e747281526020017f616374000000000000000000000000000000000000000000000000000000000081525060400191505060405180910390fd5b600160009054906101000a900473ffffffffffffffffffffffffffffffffffffffff1673ffffffffffffffffffffffffffffffffffffffff163373ffffffffffffffffffffffffffffffffffffffff16148061078f5750600073ffffffffffffffffffffffffffffffffffffffff16600160009054906101000a900473ffffffffffffffffffffffffffffffffffffffff1673ffffffffffffffffffffffffffffffffffffffff16145b1515610829576040517f08c379a000000000000000000000000000000000000000000000000000000000815260040180806020018281038252603a8152602001807f4e6577206f776e6572206d757374206d6174636820746865206164647265737381526020017f20776869636820626f756768742074686520636f6e747261637400000000000081525060400191505060405180910390fd5b600254841415156108c8576040517f08c379a00000000000000000000000000000000000000000000000000000000081526004018080602001828103825260218152602001807f56616c7565206d757374206d61746368207468652061736b696e67207072696381526020017f650000000000000000000000000000000000000000000000000000000000000081525060400191505060405180910390fd5b6000809054906101000a900473ffffffffffffffffffffffffffffffffffffffff1692503391506002549050816000806101000a81548173ffffffffffffffffffffffffffffffffffffffff021916908373ffffffffffffffffffffffffffffffffffffffff1602179055507ff2dbd98d79f00f7aff338b824931d607bfcc63d47307162470f25a055102d3b0600f4302848484604051808581526020018473ffffffffffffffffffffffffffffffffffffffff1673ffffffffffffffffffffffffffffffffffffffff1681526020018373ffffffffffffffffffffffffffffffffffffffff1673ffffffffffffffffffffffffffffffffffffffff16815260200182815260200194505050505060405180910390a16109e6610baf565b50505050565b6000809054906101000a900473ffffffffffffffffffffffffffffffffffffffff1681565b6000809054906101000a900473ffffffffffffffffffffffffffffffffffffffff1673ffffffffffffffffffffffffffffffffffffffff163373ffffffffffffffffffffffffffffffffffffffff16141515610afb576040517f08c379a00000000000000000000000000000000000000000000000000000000081526004018080602001828103825260258152602001807f596f7520617265206e6f7420616e206f776e6572206f66207468697320636f6e81526020017f747261637400000000000000000000000000000000000000000000000000000081525060400191505060405180910390fd5b600060149054906101000a900460ff161515610ba5576040517f08c379a000000000000000000000000000000000000000000000000000000000815260040180806020018281038252603b8152602001807f596f752063616e6e6f742063616e63656c20612073616c6520696620636f6e7481526020017f72616374206973206e6f742073657420757020666f722073616c65000000000081525060400191505060405180910390fd5b610bad610baf565b565b60008060146101000a81548160ff0219169083151502179055506000600160006101000a81548173ffffffffffffffffffffffffffffffffffffffff021916908373ffffffffffffffffffffffffffffffffffffffff16021790555060006002819055505600a165627a7a7230582000ce298cbaf6928e16c66e81d0af70066d9cf6fb99b3141ea8a2c01e43b586460029",
  "source": "pragma solidity ^0.4.24;\n\ncontract Sellable {\n\n  address public owner;\n  bool public selling = false;\n  address public sellingTo;\n  uint public askingPrice;\n\n  modifier onlyOwner {\n    require(\n      msg.sender == owner,\n      \"You are not an owner of this contract\"\n    );\n    _;\n  }\n\n  modifier ifNotLocked {\n    require(\n      !selling,\n      \"This contract is locked for sale\"\n    );\n    _;\n  }\n\n  event Transfer(uint _saleDate, address _from, address _to, uint _salePrice);\n\n  constructor() public {\n    owner = msg.sender;\n    emit Transfer(block.number * 15, address(0), owner, 0);\n  }\n\n  function initiateSale(uint _price, address _to) public onlyOwner {\n    require(\n      _to != address(this) && _to != owner,\n      \"You cannot sell the contract to yourself\"\n      );\n    require(\n      !selling,\n      \"This contract is already locked for sale\"\n    );\n    selling = true;\n    sellingTo = _to;\n    askingPrice = _price;\n  }\n\n  function cancelSale() public onlyOwner {\n    require(\n      selling,\n      \"You cannot cancel a sale if contract is not set up for sale\"\n      );\n    resetSale();\n  }\n\n  function completeSale(uint valued) public payable {\n    require(\n      selling,\n      \"Contract is not for sale\"\n    );\n    require(\n      msg.sender != owner,\n      \"Owner cannot be a buy of a contract\"\n    );\n    require(\n      msg.sender == sellingTo || sellingTo == address(0),\n      \"New owner must match the address which bought the contract\"\n    );\n    require(\n      valued == askingPrice,\n      \"Value must match the asking price\"\n    );\n    address prevOwner = owner;\n    address newOwner = msg.sender;\n    uint salePrice = askingPrice;\n    owner = newOwner;\n\n    emit Transfer(block.number * 15, prevOwner, newOwner, salePrice);\n    resetSale();\n  }\n\n  function resetSale() internal {\n    selling = false;\n    sellingTo = address(0);\n    askingPrice = 0;\n  }\n}\n",
  "sourcePath": "/home/lovro/sellable-project/contracts/Sellable.sol",
  "compiler": {
    "name": "solc",
    "version": "0.4.24+commit.e67f0147.Emscripten.clang"
  },
  "schemaVersion": "2.0.1",
  "updatedAt": "2018-09-02T08:10:53.125Z"
}